:100000000C942A000C9434000C9434000C943400AA
:100010000C9434000C9434000C9434000C94340090
:100020000C9434000C9434000C9434000C94340080
:100030000C9434000C9434000C9434000C94340070
:100040000C9434000C9434000C9434000C94340060
:100050000C94340011241FBECFE5D4E0DEBFCDBF29
:100060000E9436000C946F000C940000DF93CF9335
:10007000CDB7DEB7AAE3B0E0EAE3F0E08081877FA6
:100080008C93ABE3B0E0EBE3F0E08081877F8C936F
:10009000A4E3B0E0E4E3F0E0808180688C93A5E322
:1000A000B0E0E5E3F0E080818F778C93E9E3F0E066
:1000B0008081882F90E088709070009741F0A5E3D0
:1000C000B0E0E5E3F0E0808180688C93EFCFA5E3BA
:1000D000B0E0E5E3F0E080818F778C93E7CFF89490
:0200E000FFCF50
:00000001FF
