:100000000C942A000C9447000C9447000C94470071
:100010000C9447000C9447000C9447000C94470044
:100020000C9447000C9447000C9447000C94470034
:100030000C9447000C9447000C9447000C94470024
:100040000C9447000C9447000C9447000C94470014
:100050000C94470011241FBECFE5D4E0DEBFCDBF16
:1000600010E0A0E6B0E0E8E5F0E302C005900D92F4
:10007000A038B107D9F710E0A0E8B0E001C01D92A8
:10008000A238B107E1F70E9499160C942A180C9433
:100090000000EF92FF920F931F937B018C0120E0F1
:1000A00030E040E05FE40E94490388238CF0C801FF
:1000B000B70120E030E040E05FE40E94C1010E940F
:1000C000A9039B01AC01205030404040504806C07D
:1000D000C801B7010E94A9039B01AC01B901CA0183
:1000E0001F910F91FF90EF900895A0E0B0E0EBE733
:1000F000F0E00C94AE17DC012B01FA019C919230D8
:1001000008F439C1EB018881823008F433C194309E
:1001100069F4843009F02FC111969C91119789815F
:10012000981709F428C1A5E7B0E025C1843009F487
:1001300021C18230A9F4923009F01DC19A01AD01AC
:1001400088E0EA010990AE01E90109929E0181501F
:10015000C1F7E201898111969C918923818308C1AD
:10016000923009F407C112962D903C901397EB0141
:100170008A819B811496AD90BD90CD90DC901797AD
:10018000EC80FD800E811F819101281B390BB90184
:1001900037FF04C066277727621B730B6032710537
:1001A0000CF061C0121613066CF537014801062EDB
:1001B00004C096948794779467940A94D2F721E0C8
:1001C00030E040E050E004C0220F331F441F551FB1
:1001D0006A95D2F721503040404050402E213F21B7
:1001E00040235123211531054105510521F021E01E
:1001F00030E040E050E079018A01E628F72808293C
:1002000019293CC0232BD1F1260E371E350146019A
:10021000062E04C096948794779467940A94D2F734
:1002200021E030E040E050E004C0220F331F441FC3
:10023000551F6A95D2F721503040404050402A2146
:100240003B214C215D21211531054105510521F04E
:1002500021E030E040E050E059016A01A628B728CB
:10026000C828D9280BC0821593052CF01C01AA249C
:10027000BB24650103C0EE24FF24870111969C91E5
:10028000D20111968C91981709F445C0992339F041
:10029000A80197012A193B094C095D0906C0A6016E
:1002A00095012E193F09400B510B57FD08C01182D3
:1002B0003382228224833583468357831DC081E0A5
:1002C00081833382228288279927DC01821B930B4A
:1002D000A40BB50B84839583A683B7830DC0220F2F
:1002E000331F441F551F24833583468357838281E0
:1002F000938101979383828324813581468157813D
:10030000DA01C9010197A109B1098F5F9F4FAF4F72
:10031000BF4328F30BC0918333822282EA0CFB1C7B
:100320000C1D1D1DE482F5820683178383E0808304
:10033000248135814681578157FF1AC0C901AA27F8
:1003400097FDA095BA2F81709070A070B0705695EF
:10035000479537952795822B932BA42BB52B848318
:100360009583A683B7838281938101969383828349
:10037000DF0101C0D201CD01CDB7DEB7E2E10C94BF
:10038000CA17A0E2B0E0E7ECF1E00C94BA17698379
:100390007A838B839C832D833E834F835887E9E048
:1003A000EE2EF12CEC0EFD1ECE010196B7010E943F
:1003B000D2048E010F5E1F4FCE010596B8010E9438
:1003C000D2048A8991E089278A8BC701B801AE01DE
:1003D000475E5F4F0E9475000E94FD03A096E6E015
:1003E0000C94D617A0E2B0E0E8EFF1E00C94BA1755
:1003F00069837A838B839C832D833E834F835887C5
:10040000F9E0EF2EF12CEC0EFD1ECE010196B701A6
:100410000E94D2048E010F5E1F4FCE010596B801D7
:100420000E94D204C701B801AE01475E5F4F0E942F
:1004300075000E94FD03A096E6E00C94D617A0E29A
:10044000B0E0E5E2F2E00C94AE1769837A838B8327
:100450009C832D833E834F835887CE010196BE0136
:10046000675F7F4F0E94D204CE010596BE016F5E8A
:100470007F4F0E94D2049985923088F0898982301A
:10048000C8F0943019F4823051F404C0843029F457
:10049000923081F485E790E0C6C0923049F420E0C4
:1004A0009A858A89981321E02A87CE010996BBC0D4
:1004B000823049F420E09A858A89981321E02A8BBA
:1004C000CE014196B0C02D843E844F8458886D88FB
:1004D0007E888F88988CEE24FF248701AA24BB2471
:1004E000650140E050E060E070E0E0E0F0E0C10174
:1004F00081709070892BE9F0E60CF71C081D191D1E
:100500009A01AB012A0D3B1D4C1D5D1D80E090E062
:10051000A0E0B0E0E614F7040805190520F481E036
:1005200090E0A0E0B0E0BA01A901480F591F6A1F8E
:100530007B1FAA0CBB1CCC1CDD1C97FE08C081E0F5
:1005400090E0A0E0B0E0A82AB92ACA2ADB2A3196B6
:10055000E032F10549F0660C771C881C991C569412
:10056000479437942794C3CFFA85EA892B893C892D
:100570008B859C85280F391F2E5F3F4F17C0CA01FE
:1005800081709070892B61F016950795F794E79428
:1005900080E090E0A0E0B0E8E82AF92A0A2B1B2BC3
:1005A00076956795579547952F5F3F4F77FDE7CF36
:1005B0000CC0440F551F661F771F17FD4160EE0CDE
:1005C000FF1C001F111F21503040403090E05907A0
:1005D00090E0690790E4790760F32B8F3C8FDB0193
:1005E000CA018F779070A070B07080349105A1051A
:1005F000B10561F447FD0AC0E114F10401051105DC
:1006000029F0405C5F4F6F4F7F4F40781A8EFE1786
:1006100011F081E08A8F4D8F5E8F6F8F78A383E01A
:10062000898FCE0149960E94FD03A096E2E10C94C9
:10063000CA17A8E1B0E0EFE1F3E00C94BA176983C0
:100640007A838B839C832D833E834F83588789E0F5
:10065000E82EF12CEC0EFD1ECE010196B7010E9492
:10066000D2048E010F5E1F4FCE010596B8010E9485
:10067000D2048985823040F08989823028F0C70110
:10068000B8010E944A0501C08FEF6896E6E00C941D
:10069000D617A8E1B0E0EFE4F3E00C94BA17698351
:1006A0007A838B839C832D833E834F83588789E095
:1006B000E82EF12CEC0EFD1ECE010196B7010E9432
:1006C000D2048E010F5E1F4FCE010596B8010E9425
:1006D000D2048985823040F08989823028F0C701B0
:1006E000B8010E944A0501C08FEF6896E6E00C94BD
:1006F000D617A8E1B0E0EFE7F3E00C94BA176983EE
:100700007A838B839C832D833E834F83588789E034
:10071000E82EF12CEC0EFD1ECE010196B7010E94D1
:10072000D2048E010F5E1F4FCE010596B8010E94C4
:10073000D2048985823040F08989823028F0C7014F
:10074000B8010E944A0501C081E06896E6E00C9479
:10075000D617ACE0B0E0EFEAF3E00C94BE17698383
:100760007A838B839C83CE010196BE016B5F7F4FA2
:100770000E94D2048D81823061F1823050F1843048
:1007800021F48E81882351F12EC02F81388537FDC9
:1007900020C06E812F3131051CF06623F9F023C093
:1007A0008EE190E0821B930B29853A854B855C8511
:1007B00004C056954795379527958A95D2F76623B5
:1007C000B1F050954095309521953F4F4F4F5F4F79
:1007D0000EC020E030E040E050E009C02FEF3FEFD6
:1007E0004FEF5FE704C020E030E040E050E8B9019F
:1007F000CA012C96E2E00C94DA17DF92EF92FF9296
:100800000F931F93FC01E480F58006811781D1804E
:100810008081823048F480E090E0A0E1B0E0E82AF6
:10082000F92A0A2B1B2BA5C0843009F49FC0823003
:1008300021F4EE24FF24870105C0E114F104010531
:10084000110519F4E0E0F0E096C0628173819FEF3A
:10085000623879070CF05BC022E83FEF261B370BAC
:100860002A3131052CF020E030E040E050E02AC091
:10087000B801A701022E04C0769567955795479554
:100880000A94D2F781E090E0A0E0B0E004C0880FC5
:10089000991FAA1FBB1F2A95D2F70197A109B10979
:1008A0008E219F21A023B1230097A105B10521F03E
:1008B00081E090E0A0E0B0E09A01AB01282B392B59
:1008C0004A2B5B2BDA01C9018F779070A070B07052
:1008D00080349105A105B10539F427FF09C0205CDA
:1008E0003F4F4F4F5F4F04C0215C3F4F4F4F5F4F13
:1008F000E0E0F0E02030A0E03A07A0E04A07A0E402
:100900005A0710F0E1E0F0E079018A0127C0603871
:10091000710564F5FB01E158FF4FD801C7018F77DE
:100920009070A070B07080349105A105B10539F4C4
:10093000E7FE0DC080E490E0A0E0B0E004C08FE3EB
:1009400090E0A0E0B0E0E80EF91E0A1F1B1F17FFA1
:1009500005C016950795F794E794319687E01695AC
:100960000795F794E7948A95D1F705C0EE24FF2404
:100970008701EFEFF0E06E2F679566276795902F60
:100980009F77D794DD24D7948E2F8695492F462BB9
:10099000582F5D29B701CA011F910F91FF90EF9069
:1009A000DF900895FC01DB01408151812281622F9B
:1009B0006F7770E0221F2227221F9381892F880FD3
:1009C000822B282F30E0991F9927991F11969C930D
:1009D000119721153105A9F54115510561057105DD
:1009E00011F482E037C082E89FEF13969C938E93B8
:1009F00012979A01AB0167E0220F331F441F551F66
:100A00006A95D1F783E08C930DC0220F331F441FEA
:100A1000551F12968D919C911397019713969C9355
:100A20008E931297203080E0380780E0480780E4FA
:100A3000580758F314962D933D934D935C93179755
:100A400008952F3F310579F4411551056105710570
:100A500019F484E08C93089564FF03C081E08C93C3
:100A600012C01C9210C02F57304013963C932E9307
:100A7000129783E08C9387E0440F551F661F771F02
:100A80008A95D1F7706414964D935D936D937C9322
:100A9000179708951F93DC01FB019C91923008F495
:100AA00047C08081823008F443C0943051F41196DD
:100AB0001C91843099F58181682F70E0611B710968
:100AC0003FC0843021F0923031F48230B9F181811D
:100AD000882389F12DC011961C9111978230F1F075
:100AE00081811817D9F412962D913C911397828128
:100AF00093818217930794F028173907BCF0149656
:100B00008D919D910D90BC91A02D248135814681C0
:100B10005781281739074A075B0718F4112341F05A
:100B20000AC082179307A407B50740F4112319F0F0
:100B300061E070E005C06FEF7FEF02C060E070E041
:100B4000CB011F910895DF93CF930F92CDB7DEB7FE
:100B5000198257C08981282F30E0C901880F991F59
:100B6000820F931FFC01E258FF4F80818830E9F427
:100B70008981282F30E0C901880F991F820F931FA8
:100B8000FC01E358FF4F40818981282F30E0C901E3
:100B9000880F991F820F931FFC01E158FF4F90812E
:100BA000842F692F0E948C0929C08981282F30E069
:100BB000C901880F991F820F931FFC01E358FF4F53
:100BC00050818981282F30E0C901880F991F820F39
:100BD000931FFC01E258FF4F40818981282F30E0AC
:100BE000C901880F991F820F931FFC01E158FF4F25
:100BF0009081852F642F492F0E94090689818F5F7C
:100C000089838981882309F4A5CF0F90CF91DF9143
:100C10000895DF93CF9300D000D00F92CDB7DEB709
:100C200089836A834B838981843008F0D8C18A81A3
:100C3000883008F0D4C18981282F30E03D832C838F
:100C40008C819D818130910509F484C02C813D8186
:100C5000223031052CF48C819D81009771F0BFC149
:100C60002C813D812230310509F4E1C08C819D81C8
:100C70008330910509F448C1B2C18B81882341F5C5
:100C8000AAE3B0E0EAE3F0E08081482F8A81282FD0
:100C900030E081E090E002C0880F991F2A95E2F7CA
:100CA000809584238C93ABE3B0E0EBE3F0E08081AC
:100CB000482F8A81282F30E081E090E0022E02C088
:100CC000880F991F0A94E2F7809584238C9387C13B
:100CD0008B81813039F5AAE3B0E0EAE3F0E080816E
:100CE000482F8A81282F30E081E090E002C0880FF1
:100CF000991F2A95E2F7809584238C93ABE3B0E0AB
:100D0000EBE3F0E08081482F8A81282F30E081E0FA
:100D100090E0022E02C0880F991F0A94E2F7842BFC
:100D20008C935DC18B81823009F059C1AAE3B0E098
:100D3000EAE3F0E08081482F8A81282F30E081E0CB
:100D400090E0022E02C0880F991F0A94E2F7842BCC
:100D50008C9345C18B81882341F5A7E3B0E0E7E39D
:100D6000F0E08081482F8A81282F30E081E090E0F8
:100D700002C0880F991F2A95E2F7809584238C93EF
:100D8000A8E3B0E0E8E3F0E08081482F8A81282FD3
:100D900030E081E090E0022E02C0880F991F0A9493
:100DA000E2F7809584238C931AC18B81813039F5C9
:100DB000A7E3B0E0E7E3F0E08081482F8A81282FA5
:100DC00030E081E090E002C0880F991F2A95E2F799
:100DD000809584238C93A8E3B0E0E8E3F0E0808181
:100DE000482F8A81282F30E081E090E0022E02C057
:100DF000880F991F0A94E2F7842B8C93F0C08B81A3
:100E0000823009F0ECC0A7E3B0E0E7E3F0E08081D6
:100E1000482F8A81282F30E081E090E0022E02C026
:100E2000880F991F0A94E2F7842B8C93D8C08B818A
:100E3000882341F5A4E3B0E0E4E3F0E08081482FAB
:100E40008A81282F30E081E090E002C0880F991F4E
:100E50002A95E2F7809584238C93A5E3B0E0E5E33F
:100E6000F0E08081482F8A81282F30E081E090E0F7
:100E7000022E02C0880F991F0A94E2F780958423FE
:100E80008C93ADC08B81813039F5A4E3B0E0E4E30D
:100E9000F0E08081482F8A81282F30E081E090E0C7
:100EA00002C0880F991F2A95E2F7809584238C93BE
:100EB000A5E3B0E0E5E3F0E08081482F8A81282FA8
:100EC00030E081E090E0022E02C0880F991F0A9462
:100ED000E2F7842B8C9383C08B81823009F07FC032
:100EE000A4E3B0E0E4E3F0E08081482F8A81282F7A
:100EF00030E081E090E0022E02C0880F991F0A9432
:100F0000E2F7842B8C936BC08B81882341F5A1E39E
:100F1000B0E0E1E3F0E08081482F8A81282F30E0C3
:100F200081E090E002C0880F991F2A95E2F7809532
:100F300084238C93A2E3B0E0E2E3F0E08081482FC9
:100F40008A81282F30E081E090E0022E02C0880FD5
:100F5000991F0A94E2F7809584238C9340C08B817B
:100F6000813039F5A1E3B0E0E1E3F0E08081482F82
:100F70008A81282F30E081E090E002C0880F991F1D
:100F80002A95E2F7809584238C93A2E3B0E0E2E314
:100F9000F0E08081482F8A81282F30E081E090E0C6
:100FA000022E02C0880F991F0A94E2F7842B8C93BB
:100FB00016C08B81823099F4A1E3B0E0E1E3F0E068
:100FC0008081482F8A81282F30E081E090E0022E36
:100FD00002C0880F991F0A94E2F7842B8C930F901C
:100FE0000F900F900F900F90CF91DF910895DF93A6
:100FF000CF9300D000D00F92CDB7DEB78A836B833A
:1010000019828A81843008F084C08B81883008F08E
:1010100080C08A81282F30E03D832C834C815D8104
:101020004130510579F18C819D818230910534F4F4
:101030002C813D812115310569F06BC04C815D81AA
:1010400042305105B9F18C819D818330910509F4BD
:1010500049C05FC0E9E3F0E08081282F30E08B8158
:10106000882F90E0A90102C0559547958A95E2F72F
:10107000CA0181709070882319F081E0898349C08A
:10108000198247C0E6E3F0E08081282F30E08B81B1
:10109000882F90E0A90102C0559547958A95E2F7FF
:1010A000CA0181709070882319F081E0898331C072
:1010B00019822FC0E3E3F0E08081282F30E08B819C
:1010C000882F90E0A90102C0559547958A95E2F7CF
:1010D000CA0181709070882319F081E0898319C05A
:1010E000198217C0E0E3F0E08081282F30E08B8187
:1010F000882F90E0A90102C0559547958A95E2F79F
:10110000CA0181709070882319F081E0898301C041
:10111000198289810F900F900F900F900F90CF91AF
:10112000DF910895DF93CF9300D000D00F92CDB719
:10113000DEB789836A834B838981843008F0E4C0F9
:101140008A81883008F0E0C08981282F30E03D8313
:101150002C838C819D818130910509F447C02C81BD
:101160003D81223031052CF48C819D81009771F0F6
:10117000CBC02C813D812230310509F467C08C81C0
:101180009D818330910509F491C0BEC08B8181306F
:10119000A1F4ABE3B0E0EBE3F0E08081482F8A817B
:1011A000282F30E081E090E0022E02C0880F991FC6
:1011B0000A94E2F7842B8C93A7C08B81882309F0D3
:1011C000A3C0ABE3B0E0EBE3F0E08081482F8A817D
:1011D000282F30E081E090E0022E02C0880F991F96
:1011E0000A94E2F7809584238C938EC08B818130A2
:1011F000A1F4A8E3B0E0E8E3F0E08081482F8A8121
:10120000282F30E081E090E0022E02C0880F991F65
:101210000A94E2F7842B8C9377C08B81882309F0A2
:1012200073C0A8E3B0E0E8E3F0E08081482F8A8152
:10123000282F30E081E090E0022E02C0880F991F35
:101240000A94E2F7809584238C935EC08B81813071
:10125000A1F4A5E3B0E0E5E3F0E08081482F8A81C6
:10126000282F30E081E090E0022E02C0880F991F05
:101270000A94E2F7842B8C9347C08B81882309F072
:1012800043C0A5E3B0E0E5E3F0E08081482F8A8128
:10129000282F30E081E090E0022E02C0880F991FD5
:1012A0000A94E2F7809584238C932EC08B81813041
:1012B000A1F4A2E3B0E0E2E3F0E08081482F8A816C
:1012C000282F30E081E090E0022E02C0880F991FA5
:1012D0000A94E2F7842B8C9317C08B818823A1F4A6
:1012E000A2E3B0E0E2E3F0E08081482F8A81282F7A
:1012F00030E081E090E0022E02C0880F991F0A942E
:10130000E2F7809584238C930F900F900F900F90AD
:101310000F90CF91DF910895DF93CF9300D000D04D
:10132000CDB7DEB789836A838981843008F096C09F
:101330008981282F30E03C832B838B819C818130F5
:101340009105A9F12B813C81223031052CF48B8150
:101350009C81009771F082C02B813C812230310545
:1013600009F443C08B819C818330910509F45AC0F4
:1013700075C08A81882339F4EAE3F0E01082EBE358
:10138000F0E010826BC08A81813041F4EAE3F0E042
:101390001082EBE3F0E08FEF808360C08A818F3FA3
:1013A00009F05CC0EAE3F0E08FEF808357C08A81E8
:1013B000882339F4E7E3F0E01082E8E3F0E01082FC
:1013C0004DC08A81813041F4E7E3F0E01082E8E328
:1013D000F0E08FEF808342C08A818F3F09F03EC0EA
:1013E000E7E3F0E08FEF808339C08A81882339F406
:1013F000E4E3F0E01082E5E3F0E010822FC08A81A0
:10140000813041F4E4E3F0E01082E5E3F0E08FEFB7
:10141000808324C08A818F3F09F5E4E3F0E08FEFF9
:1014200080831CC08A81882339F4E1E3F0E01082D4
:10143000E2E3F0E0108212C08A81813041F4E1E3FE
:10144000F0E01082E2E3F0E08FEF808307C08A8152
:101450008F3F21F4E1E3F0E08FEF80830F900F9056
:101460000F900F90CF91DF910895DF93CF9300D02D
:1014700000D0CDB7DEB78A8319828A81843090F597
:101480008A81282F30E03C832B838B819C818130A3
:101490009105D1F02B813C81223031052CF48B81D8
:1014A0009C81009761F01EC02B813C812230310568
:1014B00081F08B819C818330910581F013C0E9E339
:1014C000F0E0808189830EC0E6E3F0E080818983CB
:1014D00009C0E3E3F0E08081898304C0E0E3F0E049
:1014E0008081898389810F900F900F900F90CF9109
:1014F000DF910895DF93CF9300D000D0CDB7DEB752
:1015000089836A838981843090F58981282F30E02E
:101510003C832B838B819C8181309105D1F02B8181
:101520003C81223031052CF48B819C81009761F045
:101530001EC02B813C812230310581F08B819C8142
:101540008330910581F013C0EBE3F0E08A81808362
:101550000EC0E8E3F0E08A81808309C0E5E3F0E0B3
:101560008A81808304C0E2E3F0E08A8180830F9067
:101570000F900F900F90CF91DF910895DF93CF934D
:101580000F92CDB7DEB782E060E042E00E9409062C
:1015900082E061E042E00E94090682E066E042E00B
:1015A0000E94090619820BC08981982F9C5F80E0F8
:1015B000692F42E00E94090689818F5F89838981B2
:1015C000843090F382E00E94F20A88E20E94F20ADC
:1015D0008FE00E94F20A81E00E94F20A0F90CF9100
:1015E000DF9108950F931F93DF93CF93CDB7DEB7AD
:1015F000C656D0400FB6F894DEBF0FBECDBFFE0179
:10160000EA59FF4F808382E060E040E00E94920848
:1016100082E061E040E00E949208FE01E15AFF4F43
:1016200080E090E0A0E8BFE380839183A283B3834E
:101630008E01055A1F4FFE01E15AFF4F60817181F3
:101640008281938120E030E04AE753E40E941F0248
:10165000DC01CB01F80180839183A283B383FE0177
:10166000E55AFF4F608171818281938120E030E0F3
:1016700040E85FE30E947903882344F4FE01E75ABF
:10168000FF4F81E090E09183808364C0FE01E55AC2
:10169000FF4F608171818281938120E03FEF4FE7AE
:1016A00057E40E94190318160CF043C0FE01E15ADA
:1016B000FF4F608171818281938120E030E040E2C0
:1016C00051E40E941F02DC01CB018E01075A1F4F1B
:1016D000BC01CD010E944900DC01CB01F8019183DE
:1016E00080831FC0FE01E95AFF4F89E190E091839A
:1016F0008083FE01E95AFF4F808191810197F1F7C4
:10170000FE01E95AFF4F91838083DE01A75ABF4F44
:10171000FE01E75AFF4F80819181019711969C93BA
:101720008E93FE01E75AFF4F808191810097D1F699
:1017300027C08E01075A1F4FFE01E55AFF4F6081F7
:101740007181828193810E944900DC01CB01F80103
:1017500091838083DE01AB5ABF4FFE01E75AFF4FF2
:10176000808191818D939C93FE01EB5AFF4F808184
:1017700091810197F1F7FE01EB5AFF4F918380832E
:1017800082E066E041E00E949208FE01EF5AFF4FBE
:1017900080E090E0A0E8BFE380839183A283B383DD
:1017A0008E01035B1F4FFE01EF5AFF4F6081718175
:1017B0008281938120E030E04AE753E40E941F02D7
:1017C000DC01CB01F80180839183A283B383FE0106
:1017D000E35BFF4F608171818281938120E030E083
:1017E00040E85FE30E947903882344F4FE01E55B4F
:1017F000FF4F81E090E09183808364C0FE01E35B52
:10180000FF4F608171818281938120E03FEF4FE73C
:1018100057E40E94190318160CF043C0FE01EF5A5A
:10182000FF4F608171818281938120E030E040E24E
:1018300051E40E941F02DC01CB018E01055B1F4FAA
:10184000BC01CD010E944900DC01CB01F80191836C
:1018500080831FC0FE01E75BFF4F89E190E0918329
:101860008083FE01E75BFF4F808191810197F1F753
:10187000FE01E75BFF4F91838083DE01A55BBF4FD5
:10188000FE01E55BFF4F80819181019711969C934A
:101890008E93FE01E55BFF4F808191810097D1F629
:1018A00027C08E01055B1F4FFE01E35BFF4F608188
:1018B0007181828193810E944900DC01CB01F80192
:1018C00091838083DE01A95BBF4FFE01E55BFF4F83
:1018D000808191818D939C93FE01E95BFF4F808114
:1018E00091810197F1F7FE01E95BFF4F91838083BE
:1018F000DE01AB59BF4FFE01EA59FF4F808182954F
:101900008F708C93FE01EC59FF4F108229C0FE01AD
:10191000EC59FF4F8081482F4C5FFE01EB59FF4F80
:101920008081282F30E0FE01EC59FF4F8081882F05
:1019300090E0B90102C0759567958A95E2F7CB01F1
:10194000982F917080E0642F492F0E949208DE0149
:10195000AC59BF4FFE01EC59FF4F80818F5F8C93D4
:10196000FE01EC59FF4F8081843088F2FE01ED5B6F
:10197000FF4F80E090E0A0E8BFE380839183A283E3
:10198000B3838E01015C1F4FFE01ED5BFF4F608151
:1019900071818281938120E030E04AE753E40E9424
:1019A0001F02DC01CB01F80180839183A283B38302
:1019B000FE01FF96608171818281938120E030E099
:1019C00040E85FE30E94790388232CF481E090E0F3
:1019D0009EAF8DAF46C0FE01FF966081718182810E
:1019E000938120E03FEF4FE757E40E941903181658
:1019F00064F5FE01ED5BFF4F60817181828193810F
:101A000020E030E040E251E40E941F02DC01CB0103
:101A1000BC01CD010E944900DC01CB019EAF8DAF1E
:101A20000FC089E190E09CAF8BAF8BAD9CAD01976F
:101A3000F1F79CAF8BAF8DAD9EAD01979EAF8DAF93
:101A40008DAD9EAD009769F716C0FE01FF966081CF
:101A50007181828193810E944900DC01CB019EAF9C
:101A60008DAF8DAD9EAD9AAF89AF89AD9AAD01971F
:101A7000F1F79AAF89AF82E066E040E00E949208F9
:101A800080E090E0A0E8BFE38DAB9EABAFABB8AF1A
:101A90006DA97EA98FA998AD20E030E04AE753E414
:101AA0000E941F02DC01CB0189AB9AABABABBCAB94
:101AB00069A97AA98BA99CA920E030E040E85FE3FE
:101AC0000E94790388232CF481E090E098AB8FA7E3
:101AD0003FC069A97AA98BA99CA920E03FEF4FE7F5
:101AE00057E40E94190318164CF56DA97EA98FA919
:101AF00098AD20E030E040E251E40E941F02DC019A
:101B0000CB01BC01CD010E944900DC01CB0198ABA7
:101B10008FA70FC089E190E09EA78DA78DA59EA5F8
:101B20000197F1F79EA78DA78FA598A9019798AB6C
:101B30008FA78FA598A9009769F714C069A97AA9FA
:101B40008BA99CA90E944900DC01CB0198AB8FA70F
:101B50008FA598A99CA78BA78BA59CA50197F1F7AA
:101B60009CA78BA782E066E041E00E94920880E09B
:101B700090E0A0E8BFE38FA398A7A9A7BAA76FA199
:101B800078A589A59AA520E030E04AE753E40E94B1
:101B90001F02DC01CB018BA39CA3ADA3BEA36BA151
:101BA0007CA18DA19EA120E030E040E85FE30E948F
:101BB000790388232CF481E090E09AA389A33FC0A5
:101BC0006BA17CA18DA19EA120E03FEF4FE757E4E0
:101BD0000E94190318164CF56FA178A589A59AA53E
:101BE00020E030E040E251E40E941F02DC01CB0122
:101BF000BC01CD010E944900DC01CB019AA389A35D
:101C00000FC089E190E098A38F8F8F8D98A10197E5
:101C1000F1F798A38F8F89A19AA101979AA389A31D
:101C200089A19AA1009769F714C06BA17CA18DA12D
:101C30009EA10E944900DC01CB019AA389A389A13E
:101C40009AA19E8F8D8F8D8D9E8D0197F1F79E8F1E
:101C50008D8FDE01AB59BF4FFE01EA59FF4F8081E6
:101C60008F708C93FE01ED59FF4F108229C0FE0149
:101C7000ED59FF4F8081482F4C5FFE01EB59FF4F1C
:101C80008081282F30E0FE01ED59FF4F8081882FA1
:101C900090E0B90102C0759567958A95E2F7CB018E
:101CA000982F917080E0642F492F0E949208DE01E6
:101CB000AD59BF4FFE01ED59FF4F80818F5F8C936F
:101CC000FE01ED59FF4F8081843088F280E090E082
:101CD000A0E8BFE3898F9A8FAB8FBC8F698D7A8D17
:101CE0008B8D9C8D20E030E04AE753E40E941F0278
:101CF000DC01CB018D8B9E8BAF8BB88F6D897E897C
:101D00008F89988D20E030E040E85FE30E947903FE
:101D100088232CF481E090E09C8B8B8B3FC06D89F5
:101D20007E898F89988D20E03FEF4FE757E40E942E
:101D3000190318164CF5698D7A8D8B8D9C8D20E0DA
:101D400030E040E251E40E941F02DC01CB01BC0103
:101D5000CD010E944900DC01CB019C8B8B8B0FC015
:101D600089E190E09A8B898B89899A890197F1F7AB
:101D70009A8B898B8B899C8901979C8B8B8B8B8908
:101D80009C89009769F714C06D897E898F89988D29
:101D90000E944900DC01CB019C8B8B8B8B899C8939
:101DA000988B8F878F8598890197F1F7988B8F870C
:101DB00082E066E040E00E94920880E090E0A0E8C7
:101DC000BFE38B879C87AD87BE876B857C858D85C0
:101DD0009E8520E030E04AE753E40E941F02DC01C8
:101DE000CB018F839887A987BA876F81788589858A
:101DF0009A8520E030E040E85FE30E947903882381
:101E00002CF481E090E09E838D833FC06F817885C4
:101E100089859A8520E03FEF4FE757E40E94190338
:101E200018164CF56B857C858D859E8520E030E00D
:101E300040E251E40E941F02DC01CB01BC01CD0154
:101E40000E944900DC01CB019E838D830FC089E194
:101E500090E09C838B838B819C810197F1F79C831D
:101E60008B838D819E8101979E838D838D819E8141
:101E7000009769F714C06F81788589859A850E94DB
:101E80004900DC01CB019E838D838D819E819A83E5
:101E9000898389819A810197F1F79A838983CA5945
:101EA000DF4F0FB6F894DEBF0FBECDBFCF91DF91ED
:101EB0001F910F9108950F931F93DF93CF93CDB789
:101EC000DEB7C656D0400FB6F894DEBF0FBECDBF0A
:101ED000FE01EA59FF4F808382E060E041E00E940A
:101EE000920882E061E040E00E949208FE01E15A1F
:101EF000FF4F80E090E0A0E8BFE380839183A2835E
:101F0000B3838E01055A1F4FFE01E15AFF4F6081D6
:101F100071818281938120E030E04AE753E40E949E
:101F20001F02DC01CB01F80180839183A283B3837C
:101F3000FE01E55AFF4F608171818281938120E02B
:101F400030E040E85FE30E947903882344F4FE0117
:101F5000E75AFF4F81E090E09183808364C0FE01E7
:101F6000E55AFF4F608171818281938120E03FEFCC
:101F70004FE757E40E94190318160CF043C0FE0106
:101F8000E15AFF4F608171818281938120E030E0CE
:101F900040E251E40E941F02DC01CB018E01075A8E
:101FA0001F4FBC01CD010E944900DC01CB01F801AB
:101FB000918380831FC0FE01E95AFF4F89E190E0C1
:101FC00091838083FE01E95AFF4F808191810197BF
:101FD000F1F7FE01E95AFF4F91838083DE01A75A92
:101FE000BF4FFE01E75AFF4F808191810197119603
:101FF0009C938E93FE01E75AFF4F80819181009759
:10200000D1F627C08E01075A1F4FFE01E55AFF4F38
:1020100060817181828193810E944900DC01CB0142
:10202000F80191838083DE01AB5ABF4FFE01E75A6E
:10203000FF4F808191818D939C93FE01EB5AFF4F5E
:10204000808191810197F1F7FE01EB5AFF4F918357
:10205000808382E066E041E00E949208FE01EF5A30
:10206000FF4F80E090E0A0E8BFE380839183A283EC
:10207000B3838E01035B1F4FFE01EF5AFF4F608158
:1020800071818281938120E030E04AE753E40E942D
:102090001F02DC01CB01F80180839183A283B3830B
:1020A000FE01E35BFF4F608171818281938120E0BB
:1020B00030E040E85FE30E947903882344F4FE01A6
:1020C000E55BFF4F81E090E09183808364C0FE0177
:1020D000E35BFF4F608171818281938120E03FEF5C
:1020E0004FE757E40E94190318160CF043C0FE0195
:1020F000EF5AFF4F608171818281938120E030E04F
:1021000040E251E40E941F02DC01CB018E01055B1D
:102110001F4FBC01CD010E944900DC01CB01F80139
:10212000918380831FC0FE01E75BFF4F89E190E050
:1021300091838083FE01E75BFF4F8081918101974E
:10214000F1F7FE01E75BFF4F91838083DE01A55B22
:10215000BF4FFE01E55BFF4F808191810197119692
:102160009C938E93FE01E55BFF4F808191810097E8
:10217000D1F627C08E01055B1F4FFE01E35BFF4FC9
:1021800060817181828193810E944900DC01CB01D1
:10219000F80191838083DE01A95BBF4FFE01E55BFF
:1021A000FF4F808191818D939C93FE01E95BFF4FEE
:1021B000808191810197F1F7FE01E95BFF4F9183E7
:1021C0008083DE01AB59BF4FFE01EA59FF4F80818A
:1021D00082958F708C93FE01EC59FF4F108229C0BD
:1021E000FE01EC59FF4F8081482F4C5FFE01EB59F7
:1021F000FF4F8081282F30E0FE01EC59FF4F808196
:10220000882F90E0B90102C0759567958A95E2F72D
:10221000CB01982F917080E0642F492F0E94920883
:10222000DE01AC59BF4FFE01EC59FF4F80818F5F3B
:102230008C93FE01EC59FF4F8081843088F2FE01BF
:10224000ED5BFF4F80E090E0A0E8BFE380839183E7
:10225000A283B3838E01015C1F4FFE01ED5BFF4F34
:10226000608171818281938120E030E04AE753E40C
:102270000E941F02DC01CB01F80180839183A283BD
:10228000B383FE01FF96608171818281938120E09A
:1022900030E040E85FE30E94790388232CF481E07A
:1022A00090E09EAF8DAF46C0FE01FF9660817181C8
:1022B0008281938120E03FEF4FE757E40E941903AA
:1022C000181664F5FE01ED5BFF4F6081718182811C
:1022D000938120E030E040E251E40E941F02DC01E3
:1022E000CB01BC01CD010E944900DC01CB019EAFB6
:1022F0008DAF0FC089E190E09CAF8BAF8BAD9CADF3
:102300000197F1F79CAF8BAF8DAD9EAD01979EAF5E
:102310008DAF8DAD9EAD009769F716C0FE01FF969B
:1023200060817181828193810E944900DC01CB012F
:102330009EAF8DAF8DAD9EAD9AAF89AF89AD9AAD91
:102340000197F1F79AAF89AF82E066E040E00E9422
:10235000920880E090E0A0E8BFE38DAB9EABAFAB0E
:10236000B8AF6DA97EA98FA998AD20E030E04AE70B
:1023700053E40E941F02DC01CB0189AB9AABABABEB
:10238000BCAB69A97AA98BA99CA920E030E040E800
:102390005FE30E94790388232CF481E090E098ABFE
:1023A0008FA73FC069A97AA98BA99CA920E03FEF1C
:1023B0004FE757E40E94190318164CF56DA97EA942
:1023C0008FA998AD20E030E040E251E40E941F0266
:1023D000DC01CB01BC01CD010E944900DC01CB0135
:1023E00098AB8FA70FC089E190E09EA78DA78DA520
:1023F0009EA50197F1F79EA78DA78FA598A9019794
:1024000098AB8FA78FA598A9009769F714C069A901
:102410007AA98BA99CA90E944900DC01CB0198AB49
:102420008FA78FA598A99CA78BA78BA59CA5019783
:10243000F1F79CA78BA782E066E041E00E9492083A
:1024400080E090E0A0E8BFE38FA398A7A9A7BAA770
:102450006FA178A589A59AA520E030E04AE753E46A
:102460000E941F02DC01CB018BA39CA3ADA3BEA3E2
:102470006BA17CA18DA19EA120E030E040E85FE34C
:102480000E94790388232CF481E090E09AA389A329
:102490003FC06BA17CA18DA19EA120E03FEF4FE743
:1024A00057E40E94190318164CF56FA178A589A569
:1024B0009AA520E030E040E251E40E941F02DC01D6
:1024C000CB01BC01CD010E944900DC01CB019AA3E4
:1024D00089A30FC089E190E098A38F8F8F8D98A179
:1024E0000197F1F798A38F8F89A19AA101979AA3D9
:1024F00089A389A19AA1009769F714C06BA17CA157
:102500008DA19EA10E944900DC01CB019AA389A361
:1025100089A19AA19E8F8D8F8D8D9E8D0197F1F748
:102520009E8F8D8FDE01AB59BF4FFE01EA59FF4FE1
:1025300080818F708C93FE01ED59FF4F108229C06E
:10254000FE01ED59FF4F8081482F4C5FFE01EB5992
:10255000FF4F8081282F30E0FE01ED59FF4F808131
:10256000882F90E0B90102C0759567958A95E2F7CA
:10257000CB01982F917080E0642F492F0E94920820
:10258000DE01AD59BF4FFE01ED59FF4F80818F5FD6
:102590008C93FE01ED59FF4F8081843088F280E0FA
:1025A00090E0A0E8BFE3898F9A8FAB8FBC8F698DD5
:1025B0007A8D8B8D9C8D20E030E04AE753E40E94B9
:1025C0001F02DC01CB018D8B9E8BAF8BB88F6D8989
:1025D0007E898F89988D20E030E040E85FE30E949B
:1025E000790388232CF481E090E09C8B8B8B3FC097
:1025F0006D897E898F89988D20E03FEF4FE757E402
:102600000E94190318164CF5698D7A8D8B8D9C8D5F
:1026100020E030E040E251E40E941F02DC01CB01E7
:10262000BC01CD010E944900DC01CB019C8B8B8B4E
:102630000FC089E190E09A8B898B89899A890197EB
:10264000F1F79A8B898B8B899C8901979C8B8B8B5B
:102650008B899C89009769F714C06D897E898F8961
:10266000988D0E944900DC01CB019C8B8B8B8B8960
:102670009C89988B8F878F8598890197F1F7988B24
:102680008F8782E066E040E00E94920880E090E060
:10269000A0E8BFE38B879C87AD87BE876B857C8571
:1026A0008D859E8520E030E04AE753E40E941F02BA
:1026B000DC01CB018F839887A987BA876F817885E2
:1026C00089859A8520E030E040E85FE30E94790345
:1026D00088232CF481E090E09E838D833FC06F813E
:1026E000788589859A8520E03FEF4FE757E40E947F
:1026F000190318164CF56B857C858D859E8520E029
:1027000030E040E251E40E941F02DC01CB01BC0139
:10271000CD010E944900DC01CB019E838D830FC057
:1027200089E190E09C838B838B819C810197F1F7F9
:102730009C838B838D819E8101979E838D838D8168
:102740009E81009769F714C06F81788589859A8585
:102750000E944900DC01CB019E838D838D819E8187
:102760009A83898389819A810197F1F79A83898372
:10277000809181008F5F8093810080918100803102
:1027800029F481E08093800010928100CA59DF4FC4
:102790000FB6F894DEBF0FBECDBFCF91DF911F9172
:1027A0000F910895DF93CF9300D00F92CDB7DEB78E
:1027B0009B838A8319820EC08981282F30E08A8109
:1027C0009B81FC01E20FF31F80810E945B0F8981D6
:1027D0008F5F89838981282F30E08A819B81FC016A
:1027E000E20FF31F8081882339F70F900F900F902D
:1027F000CF91DF910895DF93CF9300D000D00F9257
:10280000CDB7DEB78A836B838A81282F30E03D8382
:102810002C838C819D8181309105E9F02C813D8153
:10282000223031052CF48C819D81009761F024C009
:102830002C813D8122303105C1F08C819D81833016
:102840009105B9F019C08B8189838B8180938100B8
:102850001092800011C08B81805C89838B81809372
:10286000810081E08093800007C08B81805F898335
:1028700003C08B81805B8983898180680E94F20A12
:102880000F900F900F900F900F90CF91DF910895C0
:10289000DF93CF9300D000D0CDB7DEB79A83898382
:1028A0006B834C838B816C810E94FB1389819A819D
:1028B0000E94D2130F900F900F900F90CF91DF9145
:1028C0000895DF93CF93CDB7DEB7109281001092B9
:1028D000800081E00E94F20ACF91DF910895DF939A
:1028E000CF93CDB7DEB7809181008F3089F480918E
:1028F0008000882369F41092810081E08093800039
:102900008091800090918100692F0E94FB131CC070
:10291000809181008F3081F480918000813061F45A
:10292000109281001092800080918000909181002F
:10293000692F0E94FB1308C084E10E94F20A809173
:1029400081008F5F80938100CF91DF910895DF93A5
:10295000CF93CDB7DEB780918100882391F4809129
:102960008000882371F48FE08093810081E0809360
:1029700080008091800090918100692F0E94FB135C
:102980001DC080918100882389F48091800081306E
:1029900069F48FE080938100109280008091800024
:1029A00090918100692F0E94FB1308C080E10E9472
:1029B000F20A80918100815080938100CF91DF9154
:1029C0000895DF93CF93CDB7DEB78CE10E94F20A72
:1029D000CF91DF910895DF93CF93CDB7DEB788E134
:1029E0000E94F20ACF91DF910895DF93CF9300D038
:1029F00000D0CDB7DEB79B838A836C838C81882F10
:102A000090E00896880F991F880F991F880F991FCB
:102A10000E94F20A19820EC08981282F30E08A8133
:102A20009B81FC01E20FF31F80810E945B0F898173
:102A30008F5F89838981883078F30F900F900F9092
:102A40000F90CF91DF910895DF93CF930F92CDB781
:102A5000DEB7898389810E945B0F0F90CF91DF9150
:102A60000895DF93CF9300D00F92CDB7DEB789835F
:102A70006A834B838A816B810E94FB1389810E9448
:102A80005B0F0F900F900F90CF91DF910895DF9320
:102A9000CF93CDB7DEB764970FB6F894DEBF0FBE05
:102AA000CDBF698B7A8B8B8B9C8B89899A899E0190
:102AB0002F5F3F4FB9014AE050E00E94E517CE0179
:102AC00001960E94D21364960FB6F894DEBF0FBE33
:102AD000CDBFCF91DF910895DF93CF9300D000D089
:102AE000CDB7DEB78A8319828A81282F30E03C83F4
:102AF0002B838B819C818830910509F470C02B81D8
:102B00003C81293031055CF58B819C8184309105B5
:102B100009F459C02B813C81253031059CF48B810F
:102B20009C818230910509F448C02B813C8123307F
:102B300031050CF045C08B819C818130910509F4F1
:102B400039C066C02B813C812630310509F441C073
:102B50008B819C81873091050CF03EC037C02B8162
:102B60003C812C30310509F446C08B819C818D302D
:102B700091055CF42B813C812A303105B1F18B81C8
:102B80009C818B309105A4F52DC02B813C812E308A
:102B90003105B9F18B819C818E3091057CF12B81BF
:102BA0003C812F30310579F18B819C8180319105F9
:102BB00069F12EC081E089832BC082E0898328C01F
:102BC00083E0898325C081E4898322C084E08983EE
:102BD0001FC085E089831CC086E0898319C082E418
:102BE000898316C087E0898313C088E0898310C079
:102BF00089E089830DC083E489830AC08AE28983DE
:102C000007C0198205C083E2898302C084E48983F6
:102C100089810F900F900F900F90CF91DF910895C1
:102C2000DF93CF9300D0CDB7DEB71A8208C081E022
:102C30006A8141E00E9409068A818F5F8A838A81C6
:102C40008430A8F3198213C08981982F9C5F81E09A
:102C5000692F42E00E9409068981982F9C5F81E0DC
:102C6000692F41E00E94920889818F5F8983898161
:102C7000843050F30F900F90CF91DF910895DF9340
:102C8000CF9300D000D0CDB7DEB71C820BC08C81B3
:102C9000982F9C5F81E0692F41E00E9492088C810F
:102CA0008F5F8C838C81843090F31B823DC08B813D
:102CB000982F9C5F81E0692F40E00E9492081A8261
:102CC00025C081E06A810E94F7078823E1F48A81A8
:102CD000882F90E0880F991F880F991F982F8B815C
:102CE000890F8F5F0E946C15898381E06A810E9441
:102CF000F7078823D1F389810F900F900F900F90E1
:102D0000CF91DF9108958A818F5F8A838A81843091
:102D1000C0F28B81982F9C5F81E0692F41E00E9477
:102D200092088B818F5F8B838B81843008F4BFCFB7
:102D3000BCCFDF93CF93CDB7DEB76D970FB6F894C6
:102D4000DEBF0FBECDBF0E94BE0A0E94101680E6F5
:102D500090E060E040E00E94481480E090E8ABE33F
:102D6000B5E4898F9A8FAB8FBC8F698D7A8D8B8DEF
:102D70009C8D20E030E04AE753E40E941F02DC0112
:102D8000CB018D8B9E8BAF8BB88F6D897E898F89A0
:102D9000988D20E030E040E85FE30E9479038823CB
:102DA0002CF481E090E09C8B8B8B3FC06D897E89F9
:102DB0008F89988D20E03FEF4FE757E40E94190379
:102DC00018164CF5698D7A8D8B8D9C8D20E030E046
:102DD00040E251E40E941F02DC01CB01BC01CD01A5
:102DE0000E944900DC01CB019C8B8B8B0FC089E1D9
:102DF00090E09A8B898B89899A890197F1F79A8B50
:102E0000898B8B899C8901979C8B8B8B8B899C8967
:102E1000009769F714C06D897E898F89988D0E940B
:102E20004900DC01CB019C8B8B8B8B899C89988B17
:102E30008F878F8598890197F1F7988B8F878AE61E
:102E400090E061E040E00E94481480E090E4ACE94A
:102E5000B5E48B879C87AD87BE876B857C858D8528
:102E60009E8520E030E04AE753E40E941F02DC0127
:102E7000CB018F839887A987BA876F8178858985E9
:102E80009A8520E030E040E85FE30E9479038823E0
:102E90002CF481E090E09E838D833FC06F81788524
:102EA00089859A8520E03FEF4FE757E40E94190398
:102EB00018164CF56B857C858D859E8520E030E06D
:102EC00040E251E40E941F02DC01CB01BC01CD01B4
:102ED0000E944900DC01CB019E838D830FC089E1F4
:102EE00090E09C838B838B819C810197F1F79C837D
:102EF0008B838D819E8101979E838D838D819E81A1
:102F0000009769F714C06F81788589859A850E943A
:102F10004900DC01CB019E838D838D819E819A8344
:102F2000898389819A810197F1F79A8389830E9425
:102F300061140E943F168D8F8D8D8A3058F487E47E
:102F400095E1AA2797FDA095BA2FBC01CD010E945B
:102F50004715EFCF8D8D0E945B0FEBCF2F923F92E5
:102F60004F925F926F927F928F929F92AF92BF9299
:102F7000CF92DF92EF92FF920F931F93CF93DF9345
:102F8000CDB7DEB7CA1BDB0B0FB6F894DEBF0FBEA2
:102F9000CDBF09942A88398848885F846E847D84EF
:102FA0008C849B84AA84B984C884DF80EE80FD80F1
:102FB0000C811B81AA81B981CE0FD11D0FB6F89467
:102FC000DEBF0FBECDBFED010895FB019F01E89468
:102FD0004230C4F04532B4F44A3029F497FB1EF471
:102FE000909581959F4F642F77270E941618805DDA
:102FF0008A330CF0895D8193CB010097A1F716F419
:103000005DE251931082C9010C940618DC01FC01A9
:10301000672F71917723E1F7329704C07C916D930C
:1030200070836291AE17BF07C8F30895AA1BBB1B3C
:1030300051E107C0AA1FBB1FA617B70710F0A61BB8
:10304000B70B881F991F5A95A9F780959095BC01D9
:08305000CD010895F894FFCFB3
:103058004368616C6C656E6765004B657970616487
:1030680020342A340000000000000000000308FF9C
:00000001FF
